{
  "address": "0x004CCDa913B8c06b023818B5B2e31dcce9a7F79F",
  "abi": [
    {
      "inputs": [
        {
          "internalType": "address",
          "name": "vrfCoordinatorV2",
          "type": "address"
        },
        {
          "internalType": "bytes32",
          "name": "gasLane",
          "type": "bytes32"
        },
        {
          "internalType": "uint64",
          "name": "subscriptionId",
          "type": "uint64"
        },
        {
          "internalType": "uint32",
          "name": "callbackGasLimit",
          "type": "uint32"
        },
        {
          "internalType": "string[3]",
          "name": "dogTokenUris",
          "type": "string[3]"
        }
      ],
      "stateMutability": "nonpayable",
      "type": "constructor"
    },
    {
      "inputs": [
        {
          "internalType": "address",
          "name": "have",
          "type": "address"
        },
        {
          "internalType": "address",
          "name": "want",
          "type": "address"
        }
      ],
      "name": "OnlyCoordinatorCanFulfill",
      "type": "error"
    },
    {
      "anonymous": false,
      "inputs": [
        {
          "indexed": true,
          "internalType": "address",
          "name": "owner",
          "type": "address"
        },
        {
          "indexed": true,
          "internalType": "address",
          "name": "approved",
          "type": "address"
        },
        {
          "indexed": true,
          "internalType": "uint256",
          "name": "tokenId",
          "type": "uint256"
        }
      ],
      "name": "Approval",
      "type": "event"
    },
    {
      "anonymous": false,
      "inputs": [
        {
          "indexed": true,
          "internalType": "address",
          "name": "owner",
          "type": "address"
        },
        {
          "indexed": true,
          "internalType": "address",
          "name": "operator",
          "type": "address"
        },
        {
          "indexed": false,
          "internalType": "bool",
          "name": "approved",
          "type": "bool"
        }
      ],
      "name": "ApprovalForAll",
      "type": "event"
    },
    {
      "anonymous": false,
      "inputs": [
        {
          "indexed": true,
          "internalType": "address",
          "name": "from",
          "type": "address"
        },
        {
          "indexed": true,
          "internalType": "address",
          "name": "to",
          "type": "address"
        },
        {
          "indexed": true,
          "internalType": "uint256",
          "name": "tokenId",
          "type": "uint256"
        }
      ],
      "name": "Transfer",
      "type": "event"
    },
    {
      "inputs": [],
      "name": "MAX_CHANCE_VALUE",
      "outputs": [
        {
          "internalType": "uint256",
          "name": "",
          "type": "uint256"
        }
      ],
      "stateMutability": "view",
      "type": "function"
    },
    {
      "inputs": [],
      "name": "NUM_WORDS",
      "outputs": [
        {
          "internalType": "uint32",
          "name": "",
          "type": "uint32"
        }
      ],
      "stateMutability": "view",
      "type": "function"
    },
    {
      "inputs": [],
      "name": "REQUEST_CONFIRMATIONS",
      "outputs": [
        {
          "internalType": "uint16",
          "name": "",
          "type": "uint16"
        }
      ],
      "stateMutability": "view",
      "type": "function"
    },
    {
      "inputs": [
        {
          "internalType": "address",
          "name": "to",
          "type": "address"
        },
        {
          "internalType": "uint256",
          "name": "tokenId",
          "type": "uint256"
        }
      ],
      "name": "approve",
      "outputs": [],
      "stateMutability": "nonpayable",
      "type": "function"
    },
    {
      "inputs": [
        {
          "internalType": "address",
          "name": "owner",
          "type": "address"
        }
      ],
      "name": "balanceOf",
      "outputs": [
        {
          "internalType": "uint256",
          "name": "",
          "type": "uint256"
        }
      ],
      "stateMutability": "view",
      "type": "function"
    },
    {
      "inputs": [
        {
          "internalType": "uint256",
          "name": "tokenId",
          "type": "uint256"
        }
      ],
      "name": "getApproved",
      "outputs": [
        {
          "internalType": "address",
          "name": "",
          "type": "address"
        }
      ],
      "stateMutability": "view",
      "type": "function"
    },
    {
      "inputs": [
        {
          "internalType": "uint256",
          "name": "moddedRng",
          "type": "uint256"
        }
      ],
      "name": "getBreedFromModdedRng",
      "outputs": [
        {
          "internalType": "uint256",
          "name": "",
          "type": "uint256"
        }
      ],
      "stateMutability": "pure",
      "type": "function"
    },
    {
      "inputs": [],
      "name": "getChanceArray",
      "outputs": [
        {
          "internalType": "uint256[3]",
          "name": "",
          "type": "uint256[3]"
        }
      ],
      "stateMutability": "pure",
      "type": "function"
    },
    {
      "inputs": [],
      "name": "i_callbackGasLimit",
      "outputs": [
        {
          "internalType": "uint32",
          "name": "",
          "type": "uint32"
        }
      ],
      "stateMutability": "view",
      "type": "function"
    },
    {
      "inputs": [],
      "name": "i_gasLane",
      "outputs": [
        {
          "internalType": "bytes32",
          "name": "",
          "type": "bytes32"
        }
      ],
      "stateMutability": "view",
      "type": "function"
    },
    {
      "inputs": [],
      "name": "i_subscriptionId",
      "outputs": [
        {
          "internalType": "uint64",
          "name": "",
          "type": "uint64"
        }
      ],
      "stateMutability": "view",
      "type": "function"
    },
    {
      "inputs": [
        {
          "internalType": "address",
          "name": "owner",
          "type": "address"
        },
        {
          "internalType": "address",
          "name": "operator",
          "type": "address"
        }
      ],
      "name": "isApprovedForAll",
      "outputs": [
        {
          "internalType": "bool",
          "name": "",
          "type": "bool"
        }
      ],
      "stateMutability": "view",
      "type": "function"
    },
    {
      "inputs": [],
      "name": "name",
      "outputs": [
        {
          "internalType": "string",
          "name": "",
          "type": "string"
        }
      ],
      "stateMutability": "view",
      "type": "function"
    },
    {
      "inputs": [
        {
          "internalType": "uint256",
          "name": "tokenId",
          "type": "uint256"
        }
      ],
      "name": "ownerOf",
      "outputs": [
        {
          "internalType": "address",
          "name": "",
          "type": "address"
        }
      ],
      "stateMutability": "view",
      "type": "function"
    },
    {
      "inputs": [
        {
          "internalType": "uint256",
          "name": "requestId",
          "type": "uint256"
        },
        {
          "internalType": "uint256[]",
          "name": "randomWords",
          "type": "uint256[]"
        }
      ],
      "name": "rawFulfillRandomWords",
      "outputs": [],
      "stateMutability": "nonpayable",
      "type": "function"
    },
    {
      "inputs": [],
      "name": "requestDoggie",
      "outputs": [
        {
          "internalType": "uint256",
          "name": "requestId",
          "type": "uint256"
        }
      ],
      "stateMutability": "nonpayable",
      "type": "function"
    },
    {
      "inputs": [
        {
          "internalType": "uint256",
          "name": "",
          "type": "uint256"
        }
      ],
      "name": "s_dogTokenUris",
      "outputs": [
        {
          "internalType": "string",
          "name": "",
          "type": "string"
        }
      ],
      "stateMutability": "view",
      "type": "function"
    },
    {
      "inputs": [
        {
          "internalType": "address",
          "name": "from",
          "type": "address"
        },
        {
          "internalType": "address",
          "name": "to",
          "type": "address"
        },
        {
          "internalType": "uint256",
          "name": "tokenId",
          "type": "uint256"
        }
      ],
      "name": "safeTransferFrom",
      "outputs": [],
      "stateMutability": "nonpayable",
      "type": "function"
    },
    {
      "inputs": [
        {
          "internalType": "address",
          "name": "from",
          "type": "address"
        },
        {
          "internalType": "address",
          "name": "to",
          "type": "address"
        },
        {
          "internalType": "uint256",
          "name": "tokenId",
          "type": "uint256"
        },
        {
          "internalType": "bytes",
          "name": "data",
          "type": "bytes"
        }
      ],
      "name": "safeTransferFrom",
      "outputs": [],
      "stateMutability": "nonpayable",
      "type": "function"
    },
    {
      "inputs": [
        {
          "internalType": "address",
          "name": "operator",
          "type": "address"
        },
        {
          "internalType": "bool",
          "name": "approved",
          "type": "bool"
        }
      ],
      "name": "setApprovalForAll",
      "outputs": [],
      "stateMutability": "nonpayable",
      "type": "function"
    },
    {
      "inputs": [
        {
          "internalType": "bytes4",
          "name": "interfaceId",
          "type": "bytes4"
        }
      ],
      "name": "supportsInterface",
      "outputs": [
        {
          "internalType": "bool",
          "name": "",
          "type": "bool"
        }
      ],
      "stateMutability": "view",
      "type": "function"
    },
    {
      "inputs": [],
      "name": "symbol",
      "outputs": [
        {
          "internalType": "string",
          "name": "",
          "type": "string"
        }
      ],
      "stateMutability": "view",
      "type": "function"
    },
    {
      "inputs": [
        {
          "internalType": "uint256",
          "name": "tokenId",
          "type": "uint256"
        }
      ],
      "name": "tokenURI",
      "outputs": [
        {
          "internalType": "string",
          "name": "",
          "type": "string"
        }
      ],
      "stateMutability": "view",
      "type": "function"
    },
    {
      "inputs": [
        {
          "internalType": "address",
          "name": "from",
          "type": "address"
        },
        {
          "internalType": "address",
          "name": "to",
          "type": "address"
        },
        {
          "internalType": "uint256",
          "name": "tokenId",
          "type": "uint256"
        }
      ],
      "name": "transferFrom",
      "outputs": [],
      "stateMutability": "nonpayable",
      "type": "function"
    }
  ],
  "transactionHash": "0x7a236f1ff6b13c9bed0e2dc633b87a195a68d8af29b0f61daf3a7407b6ac467e",
  "args": [
    "0x6168499c0cFfCaCD319c818142124B7A15E857ab",
    "0xd89b2bf150e3b9e13446986e571fb9cab24b13cea0a43ea20a6049a85cc807cc",
    "16606",
    "500000",
    [
      "ipfs://Qmcz47dLfyquXsPv1KV69i4jrHLqVLdgdtAZ39Pwj9Zuec",
      "ipfs://QmfM78xuxRXuxzznwrxGf4Z5w7vZqCpKPTa8L7oexcPotE",
      "ipfs://QmeC4r5YNuN6Xg24XSsZGdMy4D2GkXLXaSLkUsygGMBcfX"
    ]
  ],
  "numDeployments": 2,
  "solcInputHash": "dae80f298711d6efbbab30eaea94aa2a",
  "bytecode": "0x6101206040523480156200001257600080fd5b5060405162003e4a38038062003e4a83398181016040528101906200003891906200060f565b846040518060400160405280600f81526020017f52616e646f6d2049706673204e465400000000000000000000000000000000008152506040518060400160405280600381526020017f52494e00000000000000000000000000000000000000000000000000000000008152508160009081620000b6919062000901565b508060019081620000c8919062000901565b5050508073ffffffffffffffffffffffffffffffffffffffff1660808173ffffffffffffffffffffffffffffffffffffffff1681525050508473ffffffffffffffffffffffffffffffffffffffff1660a08173ffffffffffffffffffffffffffffffffffffffff16815250508360c081815250508267ffffffffffffffff1660e08167ffffffffffffffff16815250508163ffffffff166101008163ffffffff1681525050806007906003620001809291906200018c565b505050505050620009e8565b8260038101928215620001cc579160200282015b82811115620001cb578251829081620001ba919062000901565b5091602001919060010190620001a0565b5b509050620001db9190620001df565b5090565b5b80821115620002035760008181620001f9919062000207565b50600101620001e0565b5090565b5080546200021590620006f0565b6000825580601f106200022957506200024a565b601f0160209004906000526020600020908101906200024991906200024d565b5b50565b5b80821115620002685760008160009055506001016200024e565b5090565b6000604051905090565b600080fd5b600080fd5b600073ffffffffffffffffffffffffffffffffffffffff82169050919050565b6000620002ad8262000280565b9050919050565b620002bf81620002a0565b8114620002cb57600080fd5b50565b600081519050620002df81620002b4565b92915050565b6000819050919050565b620002fa81620002e5565b81146200030657600080fd5b50565b6000815190506200031a81620002ef565b92915050565b600067ffffffffffffffff82169050919050565b6200033f8162000320565b81146200034b57600080fd5b50565b6000815190506200035f8162000334565b92915050565b600063ffffffff82169050919050565b620003808162000365565b81146200038c57600080fd5b50565b600081519050620003a08162000375565b92915050565b600080fd5b6000601f19601f8301169050919050565b7f4e487b7100000000000000000000000000000000000000000000000000000000600052604160045260246000fd5b620003f682620003ab565b810181811067ffffffffffffffff82111715620004185762000417620003bc565b5b80604052505050565b60006200042d6200026c565b90506200043b8282620003eb565b919050565b600067ffffffffffffffff8211156200045e576200045d620003bc565b5b602082029050919050565b600080fd5b600080fd5b600067ffffffffffffffff821115620004915762000490620003bc565b5b6200049c82620003ab565b9050602081019050919050565b60005b83811015620004c9578082015181840152602081019050620004ac565b60008484015250505050565b6000620004ec620004e68462000473565b62000421565b9050828152602081018484840111156200050b576200050a6200046e565b5b62000518848285620004a9565b509392505050565b600082601f830112620005385762000537620003a6565b5b81516200054a848260208601620004d5565b91505092915050565b60006200056a620005648462000440565b62000421565b9050806020840283018581111562000587576200058662000469565b5b835b81811015620005d557805167ffffffffffffffff811115620005b057620005af620003a6565b5b808601620005bf898262000520565b8552602085019450505060208101905062000589565b5050509392505050565b600082601f830112620005f757620005f6620003a6565b5b60036200060684828562000553565b91505092915050565b600080600080600060a086880312156200062e576200062d62000276565b5b60006200063e88828901620002ce565b9550506020620006518882890162000309565b945050604062000664888289016200034e565b935050606062000677888289016200038f565b925050608086015167ffffffffffffffff8111156200069b576200069a6200027b565b5b620006a988828901620005df565b9150509295509295909350565b600081519050919050565b7f4e487b7100000000000000000000000000000000000000000000000000000000600052602260045260246000fd5b600060028204905060018216806200070957607f821691505b6020821081036200071f576200071e620006c1565b5b50919050565b60008190508160005260206000209050919050565b60006020601f8301049050919050565b600082821b905092915050565b600060088302620007897fffffffffffffffffffffffffffffffffffffffffffffffffffffffffffffffff826200074a565b6200079586836200074a565b95508019841693508086168417925050509392505050565b6000819050919050565b6000819050919050565b6000620007e2620007dc620007d684620007ad565b620007b7565b620007ad565b9050919050565b6000819050919050565b620007fe83620007c1565b620008166200080d82620007e9565b84845462000757565b825550505050565b600090565b6200082d6200081e565b6200083a818484620007f3565b505050565b5b8181101562000862576200085660008262000823565b60018101905062000840565b5050565b601f821115620008b1576200087b8162000725565b62000886846200073a565b8101602085101562000896578190505b620008ae620008a5856200073a565b8301826200083f565b50505b505050565b600082821c905092915050565b6000620008d660001984600802620008b6565b1980831691505092915050565b6000620008f18383620008c3565b9150826002028217905092915050565b6200090c82620006b6565b67ffffffffffffffff811115620009285762000927620003bc565b5b620009348254620006f0565b6200094182828562000866565b600060209050601f83116001811462000979576000841562000964578287015190505b620009708582620008e3565b865550620009e0565b601f198416620009898662000725565b60005b82811015620009b3578489015182556001820191506020850194506020810190506200098c565b86831015620009d35784890151620009cf601f891682620008c3565b8355505b6001600288020188555050505b505050505050565b60805160a05160c05160e0516101005161340162000a49600039600081816108060152610f680152600081816107e30152610a230152600081816107c20152610be4015260006107860152600081816108e3015261093701526134016000f3fe608060405234801561001057600080fd5b50600436106101585760003560e01c806370a08231116100c3578063b88d4fde1161007c578063b88d4fde146103c9578063c42b65e2146103e5578063c87b56dd14610415578063d757d02714610445578063da1b9e2914610463578063e985e9c51461048157610158565b806370a08231146102f357806372cf6e34146103235780638e879c8a1461034157806395d89b411461035f578063a22cb4651461037d578063a51cccf31461039957610158565b806323b872dd1161011557806323b872dd1461023157806342842e0e1461024d578063470cdf97146102695780635dacf5f4146102875780636352211e146102a557806367f082b0146102d557610158565b806301ffc9a71461015d57806306fdde031461018d578063081812fc146101ab578063095ea7b3146101db5780631801cc8a146101f75780631fe543e314610215575b600080fd5b61017760048036038101906101729190611ef1565b6104b1565b6040516101849190611f39565b60405180910390f35b610195610593565b6040516101a29190611fe4565b60405180910390f35b6101c560048036038101906101c0919061203c565b610625565b6040516101d291906120aa565b60405180910390f35b6101f560048036038101906101f091906120f1565b61066b565b005b6101ff610782565b60405161020c9190612140565b60405180910390f35b61022f600480360381019061022a91906122a3565b6108e1565b005b61024b600480360381019061024691906122ff565b6109a1565b005b610267600480360381019061026291906122ff565b610a01565b005b610271610a21565b60405161027e9190612375565b60405180910390f35b61028f610a45565b60405161029c919061243b565b60405180910390f35b6102bf60048036038101906102ba919061203c565b610a70565b6040516102cc91906120aa565b60405180910390f35b6102dd610b21565b6040516102ea9190612473565b60405180910390f35b61030d6004803603810190610308919061248e565b610b26565b60405161031a9190612140565b60405180910390f35b61032b610bdd565b60405161033891906124da565b60405180910390f35b610349610be2565b604051610356919061250e565b60405180910390f35b610367610c06565b6040516103749190611fe4565b60405180910390f35b61039760048036038101906103929190612555565b610c98565b005b6103b360048036038101906103ae919061203c565b610cae565b6040516103c09190612140565b60405180910390f35b6103e360048036038101906103de919061264a565b610d4f565b005b6103ff60048036038101906103fa919061203c565b610db1565b60405161040c9190611fe4565b60405180910390f35b61042f600480360381019061042a919061203c565b610e54565b60405161043c9190611fe4565b60405180910390f35b61044d610f66565b60405161045a91906124da565b60405180910390f35b61046b610f8a565b6040516104789190612140565b60405180910390f35b61049b600480360381019061049691906126cd565b610f8f565b6040516104a89190611f39565b60405180910390f35b60007f80ac58cd000000000000000000000000000000000000000000000000000000007bffffffffffffffffffffffffffffffffffffffffffffffffffffffff1916827bffffffffffffffffffffffffffffffffffffffffffffffffffffffff1916148061057c57507f5b5e139f000000000000000000000000000000000000000000000000000000007bffffffffffffffffffffffffffffffffffffffffffffffffffffffff1916827bffffffffffffffffffffffffffffffffffffffffffffffffffffffff1916145b8061058c575061058b82611023565b5b9050919050565b6060600080546105a29061273c565b80601f01602080910402602001604051908101604052809291908181526020018280546105ce9061273c565b801561061b5780601f106105f05761010080835404028352916020019161061b565b820191906000526020600020905b8154815290600101906020018083116105fe57829003601f168201915b5050505050905090565b60006106308261108d565b6004600083815260200190815260200160002060009054906101000a900473ffffffffffffffffffffffffffffffffffffffff169050919050565b600061067682610a70565b90508073ffffffffffffffffffffffffffffffffffffffff168373ffffffffffffffffffffffffffffffffffffffff16036106e6576040517f08c379a00000000000000000000000000000000000000000000000000000000081526004016106dd906127df565b60405180910390fd5b8073ffffffffffffffffffffffffffffffffffffffff166107056110d8565b73ffffffffffffffffffffffffffffffffffffffff16148061073457506107338161072e6110d8565b610f8f565b5b610773576040517f08c379a000000000000000000000000000000000000000000000000000000000815260040161076a90612871565b60405180910390fd5b61077d83836110e0565b505050565b60007f000000000000000000000000000000000000000000000000000000000000000073ffffffffffffffffffffffffffffffffffffffff16635d3b1d307f00000000000000000000000000000000000000000000000000000000000000007f000000000000000000000000000000000000000000000000000000000000000060037f000000000000000000000000000000000000000000000000000000000000000060036040518663ffffffff1660e01b8152600401610847959493929190612891565b6020604051808303816000875af1158015610866573d6000803e3d6000fd5b505050506040513d601f19601f8201168201806040525081019061088a91906128f9565b905033600a600083815260200190815260200160002060006101000a81548173ffffffffffffffffffffffffffffffffffffffff021916908373ffffffffffffffffffffffffffffffffffffffff16021790555090565b7f000000000000000000000000000000000000000000000000000000000000000073ffffffffffffffffffffffffffffffffffffffff163373ffffffffffffffffffffffffffffffffffffffff161461099357337f00000000000000000000000000000000000000000000000000000000000000006040517f1cf993f400000000000000000000000000000000000000000000000000000000815260040161098a929190612926565b60405180910390fd5b61099d8282611199565b5050565b6109b26109ac6110d8565b826112e2565b6109f1576040517f08c379a00000000000000000000000000000000000000000000000000000000081526004016109e8906129c1565b60405180910390fd5b6109fc838383611377565b505050565b610a1c83838360405180602001604052806000815250610d4f565b505050565b7f000000000000000000000000000000000000000000000000000000000000000081565b610a4d611e63565b6040518060600160405280600a8152602001601e81526020016064815250905090565b6000806002600084815260200190815260200160002060009054906101000a900473ffffffffffffffffffffffffffffffffffffffff169050600073ffffffffffffffffffffffffffffffffffffffff168173ffffffffffffffffffffffffffffffffffffffff1603610b18576040517f08c379a0000000000000000000000000000000000000000000000000000000008152600401610b0f90612a2d565b60405180910390fd5b80915050919050565b600381565b60008073ffffffffffffffffffffffffffffffffffffffff168273ffffffffffffffffffffffffffffffffffffffff1603610b96576040517f08c379a0000000000000000000000000000000000000000000000000000000008152600401610b8d90612abf565b60405180910390fd5b600360008373ffffffffffffffffffffffffffffffffffffffff1673ffffffffffffffffffffffffffffffffffffffff168152602001908152602001600020549050919050565b600381565b7f000000000000000000000000000000000000000000000000000000000000000081565b606060018054610c159061273c565b80601f0160208091040260200160405190810160405280929190818152602001828054610c419061273c565b8015610c8e5780601f10610c6357610100808354040283529160200191610c8e565b820191906000526020600020905b815481529060010190602001808311610c7157829003601f168201915b5050505050905090565b610caa610ca36110d8565b83836115dd565b5050565b600080600090506000610cbf610a45565b905060005b6003811015610d4657828510158015610cfe5750818160038110610ceb57610cea612adf565b5b602002015183610cfb9190612b3d565b85105b15610d0e57809350505050610d4a565b818160038110610d2157610d20612adf565b5b602002015183610d319190612b3d565b92508080610d3e90612b71565b915050610cc4565b5050505b919050565b610d60610d5a6110d8565b836112e2565b610d9f576040517f08c379a0000000000000000000000000000000000000000000000000000000008152600401610d96906129c1565b60405180910390fd5b610dab84848484611749565b50505050565b60078160038110610dc157600080fd5b016000915090508054610dd39061273c565b80601f0160208091040260200160405190810160405280929190818152602001828054610dff9061273c565b8015610e4c5780601f10610e2157610100808354040283529160200191610e4c565b820191906000526020600020905b815481529060010190602001808311610e2f57829003601f168201915b505050505081565b6060610e5f8261108d565b6000600660008481526020019081526020016000208054610e7f9061273c565b80601f0160208091040260200160405190810160405280929190818152602001828054610eab9061273c565b8015610ef85780601f10610ecd57610100808354040283529160200191610ef8565b820191906000526020600020905b815481529060010190602001808311610edb57829003601f168201915b505050505090506000610f096117a5565b90506000815103610f1e578192505050610f61565b600082511115610f53578082604051602001610f3b929190612bf5565b60405160208183030381529060405292505050610f61565b610f5c846117bc565b925050505b919050565b7f000000000000000000000000000000000000000000000000000000000000000081565b606481565b6000600560008473ffffffffffffffffffffffffffffffffffffffff1673ffffffffffffffffffffffffffffffffffffffff16815260200190815260200160002060008373ffffffffffffffffffffffffffffffffffffffff1673ffffffffffffffffffffffffffffffffffffffff16815260200190815260200160002060009054906101000a900460ff16905092915050565b60007f01ffc9a7000000000000000000000000000000000000000000000000000000007bffffffffffffffffffffffffffffffffffffffffffffffffffffffff1916827bffffffffffffffffffffffffffffffffffffffffffffffffffffffff1916149050919050565b61109681611824565b6110d5576040517f08c379a00000000000000000000000000000000000000000000000000000000081526004016110cc90612a2d565b60405180910390fd5b50565b600033905090565b816004600083815260200190815260200160002060006101000a81548173ffffffffffffffffffffffffffffffffffffffff021916908373ffffffffffffffffffffffffffffffffffffffff160217905550808273ffffffffffffffffffffffffffffffffffffffff1661115383610a70565b73ffffffffffffffffffffffffffffffffffffffff167f8c5be1e5ebec7d5bd14f71427d1e84f3dd0314c0f7b2291e5b200ac8c7c3b92560405160405180910390a45050565b6000600a600084815260200190815260200160002060009054906101000a900473ffffffffffffffffffffffffffffffffffffffff1690506000600b549050600b60008154809291906111eb90612b71565b9190505550600060648460008151811061120857611207612adf565b5b602002602001015161121a9190612c48565b9050600061122782610cae565b90506112338484611890565b6112da836007836003811061124b5761124a612adf565b5b0180546112579061273c565b80601f01602080910402602001604051908101604052809291908181526020018280546112839061273c565b80156112d05780601f106112a5576101008083540402835291602001916112d0565b820191906000526020600020905b8154815290600101906020018083116112b357829003601f168201915b50505050506118ae565b505050505050565b6000806112ee83610a70565b90508073ffffffffffffffffffffffffffffffffffffffff168473ffffffffffffffffffffffffffffffffffffffff161480611330575061132f8185610f8f565b5b8061136e57508373ffffffffffffffffffffffffffffffffffffffff1661135684610625565b73ffffffffffffffffffffffffffffffffffffffff16145b91505092915050565b8273ffffffffffffffffffffffffffffffffffffffff1661139782610a70565b73ffffffffffffffffffffffffffffffffffffffff16146113ed576040517f08c379a00000000000000000000000000000000000000000000000000000000081526004016113e490612ceb565b60405180910390fd5b600073ffffffffffffffffffffffffffffffffffffffff168273ffffffffffffffffffffffffffffffffffffffff160361145c576040517f08c379a000000000000000000000000000000000000000000000000000000000815260040161145390612d7d565b60405180910390fd5b61146783838361191b565b6114726000826110e0565b6001600360008573ffffffffffffffffffffffffffffffffffffffff1673ffffffffffffffffffffffffffffffffffffffff16815260200190815260200160002060008282546114c29190612d9d565b925050819055506001600360008473ffffffffffffffffffffffffffffffffffffffff1673ffffffffffffffffffffffffffffffffffffffff16815260200190815260200160002060008282546115199190612b3d565b92505081905550816002600083815260200190815260200160002060006101000a81548173ffffffffffffffffffffffffffffffffffffffff021916908373ffffffffffffffffffffffffffffffffffffffff160217905550808273ffffffffffffffffffffffffffffffffffffffff168473ffffffffffffffffffffffffffffffffffffffff167fddf252ad1be2c89b69c2b068fc378daa952ba7f163c4a11628f55a4df523b3ef60405160405180910390a46115d8838383611920565b505050565b8173ffffffffffffffffffffffffffffffffffffffff168373ffffffffffffffffffffffffffffffffffffffff160361164b576040517f08c379a000000000000000000000000000000000000000000000000000000000815260040161164290612e1d565b60405180910390fd5b80600560008573ffffffffffffffffffffffffffffffffffffffff1673ffffffffffffffffffffffffffffffffffffffff16815260200190815260200160002060008473ffffffffffffffffffffffffffffffffffffffff1673ffffffffffffffffffffffffffffffffffffffff16815260200190815260200160002060006101000a81548160ff0219169083151502179055508173ffffffffffffffffffffffffffffffffffffffff168373ffffffffffffffffffffffffffffffffffffffff167f17307eab39ab6107e8899845ad3d59bd9653f200f220920489ca2b5937696c318360405161173c9190611f39565b60405180910390a3505050565b611754848484611377565b61176084848484611925565b61179f576040517f08c379a000000000000000000000000000000000000000000000000000000000815260040161179690612eaf565b60405180910390fd5b50505050565b606060405180602001604052806000815250905090565b60606117c78261108d565b60006117d16117a5565b905060008151116117f1576040518060200160405280600081525061181c565b806117fb84611aac565b60405160200161180c929190612bf5565b6040516020818303038152906040525b915050919050565b60008073ffffffffffffffffffffffffffffffffffffffff166002600084815260200190815260200160002060009054906101000a900473ffffffffffffffffffffffffffffffffffffffff1673ffffffffffffffffffffffffffffffffffffffff1614159050919050565b6118aa828260405180602001604052806000815250611c0c565b5050565b6118b782611824565b6118f6576040517f08c379a00000000000000000000000000000000000000000000000000000000081526004016118ed90612f41565b60405180910390fd5b80600660008481526020019081526020016000209081611916919061310d565b505050565b505050565b505050565b60006119468473ffffffffffffffffffffffffffffffffffffffff16611c67565b15611a9f578373ffffffffffffffffffffffffffffffffffffffff1663150b7a0261196f6110d8565b8786866040518563ffffffff1660e01b81526004016119919493929190613234565b6020604051808303816000875af19250505080156119cd57506040513d601f19601f820116820180604052508101906119ca9190613295565b60015b611a4f573d80600081146119fd576040519150601f19603f3d011682016040523d82523d6000602084013e611a02565b606091505b506000815103611a47576040517f08c379a0000000000000000000000000000000000000000000000000000000008152600401611a3e90612eaf565b60405180910390fd5b805181602001fd5b63150b7a0260e01b7bffffffffffffffffffffffffffffffffffffffffffffffffffffffff1916817bffffffffffffffffffffffffffffffffffffffffffffffffffffffff191614915050611aa4565b600190505b949350505050565b606060008203611af3576040518060400160405280600181526020017f30000000000000000000000000000000000000000000000000000000000000008152509050611c07565b600082905060005b60008214611b25578080611b0e90612b71565b915050600a82611b1e91906132c2565b9150611afb565b60008167ffffffffffffffff811115611b4157611b40612160565b5b6040519080825280601f01601f191660200182016040528015611b735781602001600182028036833780820191505090505b5090505b60008514611c0057600182611b8c9190612d9d565b9150600a85611b9b9190612c48565b6030611ba79190612b3d565b60f81b818381518110611bbd57611bbc612adf565b5b60200101907effffffffffffffffffffffffffffffffffffffffffffffffffffffffffffff1916908160001a905350600a85611bf991906132c2565b9450611b77565b8093505050505b919050565b611c168383611c8a565b611c236000848484611925565b611c62576040517f08c379a0000000000000000000000000000000000000000000000000000000008152600401611c5990612eaf565b60405180910390fd5b505050565b6000808273ffffffffffffffffffffffffffffffffffffffff163b119050919050565b600073ffffffffffffffffffffffffffffffffffffffff168273ffffffffffffffffffffffffffffffffffffffff1603611cf9576040517f08c379a0000000000000000000000000000000000000000000000000000000008152600401611cf09061333f565b60405180910390fd5b611d0281611824565b15611d42576040517f08c379a0000000000000000000000000000000000000000000000000000000008152600401611d39906133ab565b60405180910390fd5b611d4e6000838361191b565b6001600360008473ffffffffffffffffffffffffffffffffffffffff1673ffffffffffffffffffffffffffffffffffffffff1681526020019081526020016000206000828254611d9e9190612b3d565b92505081905550816002600083815260200190815260200160002060006101000a81548173ffffffffffffffffffffffffffffffffffffffff021916908373ffffffffffffffffffffffffffffffffffffffff160217905550808273ffffffffffffffffffffffffffffffffffffffff16600073ffffffffffffffffffffffffffffffffffffffff167fddf252ad1be2c89b69c2b068fc378daa952ba7f163c4a11628f55a4df523b3ef60405160405180910390a4611e5f60008383611920565b5050565b6040518060600160405280600390602082028036833780820191505090505090565b6000604051905090565b600080fd5b600080fd5b60007fffffffff0000000000000000000000000000000000000000000000000000000082169050919050565b611ece81611e99565b8114611ed957600080fd5b50565b600081359050611eeb81611ec5565b92915050565b600060208284031215611f0757611f06611e8f565b5b6000611f1584828501611edc565b91505092915050565b60008115159050919050565b611f3381611f1e565b82525050565b6000602082019050611f4e6000830184611f2a565b92915050565b600081519050919050565b600082825260208201905092915050565b60005b83811015611f8e578082015181840152602081019050611f73565b60008484015250505050565b6000601f19601f8301169050919050565b6000611fb682611f54565b611fc08185611f5f565b9350611fd0818560208601611f70565b611fd981611f9a565b840191505092915050565b60006020820190508181036000830152611ffe8184611fab565b905092915050565b6000819050919050565b61201981612006565b811461202457600080fd5b50565b60008135905061203681612010565b92915050565b60006020828403121561205257612051611e8f565b5b600061206084828501612027565b91505092915050565b600073ffffffffffffffffffffffffffffffffffffffff82169050919050565b600061209482612069565b9050919050565b6120a481612089565b82525050565b60006020820190506120bf600083018461209b565b92915050565b6120ce81612089565b81146120d957600080fd5b50565b6000813590506120eb816120c5565b92915050565b6000806040838503121561210857612107611e8f565b5b6000612116858286016120dc565b925050602061212785828601612027565b9150509250929050565b61213a81612006565b82525050565b60006020820190506121556000830184612131565b92915050565b600080fd5b7f4e487b7100000000000000000000000000000000000000000000000000000000600052604160045260246000fd5b61219882611f9a565b810181811067ffffffffffffffff821117156121b7576121b6612160565b5b80604052505050565b60006121ca611e85565b90506121d6828261218f565b919050565b600067ffffffffffffffff8211156121f6576121f5612160565b5b602082029050602081019050919050565b600080fd5b600061221f61221a846121db565b6121c0565b9050808382526020820190506020840283018581111561224257612241612207565b5b835b8181101561226b57806122578882612027565b845260208401935050602081019050612244565b5050509392505050565b600082601f83011261228a5761228961215b565b5b813561229a84826020860161220c565b91505092915050565b600080604083850312156122ba576122b9611e8f565b5b60006122c885828601612027565b925050602083013567ffffffffffffffff8111156122e9576122e8611e94565b5b6122f585828601612275565b9150509250929050565b60008060006060848603121561231857612317611e8f565b5b6000612326868287016120dc565b9350506020612337868287016120dc565b925050604061234886828701612027565b9150509250925092565b600067ffffffffffffffff82169050919050565b61236f81612352565b82525050565b600060208201905061238a6000830184612366565b92915050565b600060039050919050565b600081905092915050565b6000819050919050565b6123b981612006565b82525050565b60006123cb83836123b0565b60208301905092915050565b6000602082019050919050565b6123ed81612390565b6123f7818461239b565b9250612402826123a6565b8060005b8381101561243357815161241a87826123bf565b9650612425836123d7565b925050600181019050612406565b505050505050565b600060608201905061245060008301846123e4565b92915050565b600061ffff82169050919050565b61246d81612456565b82525050565b60006020820190506124886000830184612464565b92915050565b6000602082840312156124a4576124a3611e8f565b5b60006124b2848285016120dc565b91505092915050565b600063ffffffff82169050919050565b6124d4816124bb565b82525050565b60006020820190506124ef60008301846124cb565b92915050565b6000819050919050565b612508816124f5565b82525050565b600060208201905061252360008301846124ff565b92915050565b61253281611f1e565b811461253d57600080fd5b50565b60008135905061254f81612529565b92915050565b6000806040838503121561256c5761256b611e8f565b5b600061257a858286016120dc565b925050602061258b85828601612540565b9150509250929050565b600080fd5b600067ffffffffffffffff8211156125b5576125b4612160565b5b6125be82611f9a565b9050602081019050919050565b82818337600083830152505050565b60006125ed6125e88461259a565b6121c0565b90508281526020810184848401111561260957612608612595565b5b6126148482856125cb565b509392505050565b600082601f8301126126315761263061215b565b5b81356126418482602086016125da565b91505092915050565b6000806000806080858703121561266457612663611e8f565b5b6000612672878288016120dc565b9450506020612683878288016120dc565b935050604061269487828801612027565b925050606085013567ffffffffffffffff8111156126b5576126b4611e94565b5b6126c18782880161261c565b91505092959194509250565b600080604083850312156126e4576126e3611e8f565b5b60006126f2858286016120dc565b9250506020612703858286016120dc565b9150509250929050565b7f4e487b7100000000000000000000000000000000000000000000000000000000600052602260045260246000fd5b6000600282049050600182168061275457607f821691505b6020821081036127675761276661270d565b5b50919050565b7f4552433732313a20617070726f76616c20746f2063757272656e74206f776e6560008201527f7200000000000000000000000000000000000000000000000000000000000000602082015250565b60006127c9602183611f5f565b91506127d48261276d565b604082019050919050565b600060208201905081810360008301526127f8816127bc565b9050919050565b7f4552433732313a20617070726f76652063616c6c6572206973206e6f7420746f60008201527f6b656e206f776e6572206e6f7220617070726f76656420666f7220616c6c0000602082015250565b600061285b603e83611f5f565b9150612866826127ff565b604082019050919050565b6000602082019050818103600083015261288a8161284e565b9050919050565b600060a0820190506128a660008301886124ff565b6128b36020830187612366565b6128c06040830186612464565b6128cd60608301856124cb565b6128da60808301846124cb565b9695505050505050565b6000815190506128f381612010565b92915050565b60006020828403121561290f5761290e611e8f565b5b600061291d848285016128e4565b91505092915050565b600060408201905061293b600083018561209b565b612948602083018461209b565b9392505050565b7f4552433732313a2063616c6c6572206973206e6f7420746f6b656e206f776e6560008201527f72206e6f7220617070726f766564000000000000000000000000000000000000602082015250565b60006129ab602e83611f5f565b91506129b68261294f565b604082019050919050565b600060208201905081810360008301526129da8161299e565b9050919050565b7f4552433732313a20696e76616c696420746f6b656e2049440000000000000000600082015250565b6000612a17601883611f5f565b9150612a22826129e1565b602082019050919050565b60006020820190508181036000830152612a4681612a0a565b9050919050565b7f4552433732313a2061646472657373207a65726f206973206e6f74206120766160008201527f6c6964206f776e65720000000000000000000000000000000000000000000000602082015250565b6000612aa9602983611f5f565b9150612ab482612a4d565b604082019050919050565b60006020820190508181036000830152612ad881612a9c565b9050919050565b7f4e487b7100000000000000000000000000000000000000000000000000000000600052603260045260246000fd5b7f4e487b7100000000000000000000000000000000000000000000000000000000600052601160045260246000fd5b6000612b4882612006565b9150612b5383612006565b9250828201905080821115612b6b57612b6a612b0e565b5b92915050565b6000612b7c82612006565b91507fffffffffffffffffffffffffffffffffffffffffffffffffffffffffffffffff8203612bae57612bad612b0e565b5b600182019050919050565b600081905092915050565b6000612bcf82611f54565b612bd98185612bb9565b9350612be9818560208601611f70565b80840191505092915050565b6000612c018285612bc4565b9150612c0d8284612bc4565b91508190509392505050565b7f4e487b7100000000000000000000000000000000000000000000000000000000600052601260045260246000fd5b6000612c5382612006565b9150612c5e83612006565b925082612c6e57612c6d612c19565b5b828206905092915050565b7f4552433732313a207472616e736665722066726f6d20696e636f72726563742060008201527f6f776e6572000000000000000000000000000000000000000000000000000000602082015250565b6000612cd5602583611f5f565b9150612ce082612c79565b604082019050919050565b60006020820190508181036000830152612d0481612cc8565b9050919050565b7f4552433732313a207472616e7366657220746f20746865207a65726f2061646460008201527f7265737300000000000000000000000000000000000000000000000000000000602082015250565b6000612d67602483611f5f565b9150612d7282612d0b565b604082019050919050565b60006020820190508181036000830152612d9681612d5a565b9050919050565b6000612da882612006565b9150612db383612006565b9250828203905081811115612dcb57612dca612b0e565b5b92915050565b7f4552433732313a20617070726f766520746f2063616c6c657200000000000000600082015250565b6000612e07601983611f5f565b9150612e1282612dd1565b602082019050919050565b60006020820190508181036000830152612e3681612dfa565b9050919050565b7f4552433732313a207472616e7366657220746f206e6f6e20455243373231526560008201527f63656976657220696d706c656d656e7465720000000000000000000000000000602082015250565b6000612e99603283611f5f565b9150612ea482612e3d565b604082019050919050565b60006020820190508181036000830152612ec881612e8c565b9050919050565b7f45524337323155524953746f726167653a2055524920736574206f66206e6f6e60008201527f6578697374656e7420746f6b656e000000000000000000000000000000000000602082015250565b6000612f2b602e83611f5f565b9150612f3682612ecf565b604082019050919050565b60006020820190508181036000830152612f5a81612f1e565b9050919050565b60008190508160005260206000209050919050565b60006020601f8301049050919050565b600082821b905092915050565b600060088302612fc37fffffffffffffffffffffffffffffffffffffffffffffffffffffffffffffffff82612f86565b612fcd8683612f86565b95508019841693508086168417925050509392505050565b6000819050919050565b600061300a61300561300084612006565b612fe5565b612006565b9050919050565b6000819050919050565b61302483612fef565b61303861303082613011565b848454612f93565b825550505050565b600090565b61304d613040565b61305881848461301b565b505050565b5b8181101561307c57613071600082613045565b60018101905061305e565b5050565b601f8211156130c15761309281612f61565b61309b84612f76565b810160208510156130aa578190505b6130be6130b685612f76565b83018261305d565b50505b505050565b600082821c905092915050565b60006130e4600019846008026130c6565b1980831691505092915050565b60006130fd83836130d3565b9150826002028217905092915050565b61311682611f54565b67ffffffffffffffff81111561312f5761312e612160565b5b613139825461273c565b613144828285613080565b600060209050601f8311600181146131775760008415613165578287015190505b61316f85826130f1565b8655506131d7565b601f19841661318586612f61565b60005b828110156131ad57848901518255600182019150602085019450602081019050613188565b868310156131ca57848901516131c6601f8916826130d3565b8355505b6001600288020188555050505b505050505050565b600081519050919050565b600082825260208201905092915050565b6000613206826131df565b61321081856131ea565b9350613220818560208601611f70565b61322981611f9a565b840191505092915050565b6000608082019050613249600083018761209b565b613256602083018661209b565b6132636040830185612131565b818103606083015261327581846131fb565b905095945050505050565b60008151905061328f81611ec5565b92915050565b6000602082840312156132ab576132aa611e8f565b5b60006132b984828501613280565b91505092915050565b60006132cd82612006565b91506132d883612006565b9250826132e8576132e7612c19565b5b828204905092915050565b7f4552433732313a206d696e7420746f20746865207a65726f2061646472657373600082015250565b6000613329602083611f5f565b9150613334826132f3565b602082019050919050565b600060208201905081810360008301526133588161331c565b9050919050565b7f4552433732313a20746f6b656e20616c7265616479206d696e74656400000000600082015250565b6000613395601c83611f5f565b91506133a08261335f565b602082019050919050565b600060208201905081810360008301526133c481613388565b905091905056fea2646970667358221220da2e387a4f775ee195e7df5a7ce7cf9ac4a5f53681bdd8ca70d0f5312ad01fd864736f6c63430008100033",
  "devdoc": {
    "kind": "dev",
    "methods": {
      "approve(address,uint256)": {
        "details": "See {IERC721-approve}."
      },
      "balanceOf(address)": {
        "details": "See {IERC721-balanceOf}."
      },
      "getApproved(uint256)": {
        "details": "See {IERC721-getApproved}."
      },
      "isApprovedForAll(address,address)": {
        "details": "See {IERC721-isApprovedForAll}."
      },
      "name()": {
        "details": "See {IERC721Metadata-name}."
      },
      "ownerOf(uint256)": {
        "details": "See {IERC721-ownerOf}."
      },
      "safeTransferFrom(address,address,uint256)": {
        "details": "See {IERC721-safeTransferFrom}."
      },
      "safeTransferFrom(address,address,uint256,bytes)": {
        "details": "See {IERC721-safeTransferFrom}."
      },
      "setApprovalForAll(address,bool)": {
        "details": "See {IERC721-setApprovalForAll}."
      },
      "supportsInterface(bytes4)": {
        "details": "See {IERC165-supportsInterface}."
      },
      "symbol()": {
        "details": "See {IERC721Metadata-symbol}."
      },
      "tokenURI(uint256)": {
        "details": "See {IERC721Metadata-tokenURI}."
      },
      "transferFrom(address,address,uint256)": {
        "details": "See {IERC721-transferFrom}."
      }
    },
    "version": 1
  },
  "userdoc": {
    "kind": "user",
    "methods": {},
    "version": 1
  },
  "storageLayout": {
    "storage": [
      {
        "astId": 1250,
        "contract": "contracts/RandomIpfsNft.sol:RandomIpfsNft",
        "label": "_name",
        "offset": 0,
        "slot": "0",
        "type": "t_string_storage"
      },
      {
        "astId": 1252,
        "contract": "contracts/RandomIpfsNft.sol:RandomIpfsNft",
        "label": "_symbol",
        "offset": 0,
        "slot": "1",
        "type": "t_string_storage"
      },
      {
        "astId": 1256,
        "contract": "contracts/RandomIpfsNft.sol:RandomIpfsNft",
        "label": "_owners",
        "offset": 0,
        "slot": "2",
        "type": "t_mapping(t_uint256,t_address)"
      },
      {
        "astId": 1260,
        "contract": "contracts/RandomIpfsNft.sol:RandomIpfsNft",
        "label": "_balances",
        "offset": 0,
        "slot": "3",
        "type": "t_mapping(t_address,t_uint256)"
      },
      {
        "astId": 1264,
        "contract": "contracts/RandomIpfsNft.sol:RandomIpfsNft",
        "label": "_tokenApprovals",
        "offset": 0,
        "slot": "4",
        "type": "t_mapping(t_uint256,t_address)"
      },
      {
        "astId": 1270,
        "contract": "contracts/RandomIpfsNft.sol:RandomIpfsNft",
        "label": "_operatorApprovals",
        "offset": 0,
        "slot": "5",
        "type": "t_mapping(t_address,t_mapping(t_address,t_bool))"
      },
      {
        "astId": 2238,
        "contract": "contracts/RandomIpfsNft.sol:RandomIpfsNft",
        "label": "_tokenURIs",
        "offset": 0,
        "slot": "6",
        "type": "t_mapping(t_uint256,t_string_storage)"
      },
      {
        "astId": 2985,
        "contract": "contracts/RandomIpfsNft.sol:RandomIpfsNft",
        "label": "s_dogTokenUris",
        "offset": 0,
        "slot": "7",
        "type": "t_array(t_string_storage)3_storage"
      },
      {
        "astId": 2992,
        "contract": "contracts/RandomIpfsNft.sol:RandomIpfsNft",
        "label": "s_requestIdToSender",
        "offset": 0,
        "slot": "10",
        "type": "t_mapping(t_uint256,t_address)"
      },
      {
        "astId": 2994,
        "contract": "contracts/RandomIpfsNft.sol:RandomIpfsNft",
        "label": "s_tokenCounter",
        "offset": 0,
        "slot": "11",
        "type": "t_uint256"
      }
    ],
    "types": {
      "t_address": {
        "encoding": "inplace",
        "label": "address",
        "numberOfBytes": "20"
      },
      "t_array(t_string_storage)3_storage": {
        "base": "t_string_storage",
        "encoding": "inplace",
        "label": "string[3]",
        "numberOfBytes": "96"
      },
      "t_bool": {
        "encoding": "inplace",
        "label": "bool",
        "numberOfBytes": "1"
      },
      "t_mapping(t_address,t_bool)": {
        "encoding": "mapping",
        "key": "t_address",
        "label": "mapping(address => bool)",
        "numberOfBytes": "32",
        "value": "t_bool"
      },
      "t_mapping(t_address,t_mapping(t_address,t_bool))": {
        "encoding": "mapping",
        "key": "t_address",
        "label": "mapping(address => mapping(address => bool))",
        "numberOfBytes": "32",
        "value": "t_mapping(t_address,t_bool)"
      },
      "t_mapping(t_address,t_uint256)": {
        "encoding": "mapping",
        "key": "t_address",
        "label": "mapping(address => uint256)",
        "numberOfBytes": "32",
        "value": "t_uint256"
      },
      "t_mapping(t_uint256,t_address)": {
        "encoding": "mapping",
        "key": "t_uint256",
        "label": "mapping(uint256 => address)",
        "numberOfBytes": "32",
        "value": "t_address"
      },
      "t_mapping(t_uint256,t_string_storage)": {
        "encoding": "mapping",
        "key": "t_uint256",
        "label": "mapping(uint256 => string)",
        "numberOfBytes": "32",
        "value": "t_string_storage"
      },
      "t_string_storage": {
        "encoding": "bytes",
        "label": "string",
        "numberOfBytes": "32"
      },
      "t_uint256": {
        "encoding": "inplace",
        "label": "uint256",
        "numberOfBytes": "32"
      }
    }
  }
}